:020000040800F2
:1000000038070020890100089101000893010008C9
:100010009501000897010008990100080000000000
:100020000000000000000000000000009B0100082C
:100030009D010008000000009F010008A1010008C8
:10004000A3010008A3010008A3010008A301000800
:10005000A3010008A3010008A3010008A3010008F0
:10006000A3010008A30100083D040008A301000843
:10007000A3010008A3010008A3010008A3010008D0
:10008000A3010008A3010008A3010008A3010008C0
:10009000A3010008A3010008A3010008A3010008B0
:1000A000A3010008A3010008A3010008A3010008A0
:1000B000A3010008A3010008A3010008A301000890
:1000C000A3010008A3010008A3010008A301000880
:1000D000A3010008210A0008A3010008A3010008E9
:1000E000A3010008A3010008A301000800F002F822
:1000F00000F03AF80AA090E8000C82448344AAF188
:100100000107DA4501D100F02FF8AFF2090EBAE885
:100110000F0013F0010F18BFFB1A43F0010318473B
:100120004012000060120000103A24BF78C878C165
:10013000FAD8520724BF30C830C144BF04680C60ED
:10014000704700000023002400250026103A28BF35
:1001500078C1FBD8520728BF30C148BF0B60704739
:100160001FB51FBD10B510BD00F065F81146FFF7B3
:10017000F7FF00F051FD00F083F803B4FFF7F2FF42
:1001800003BC00F08FFC0000094880470948004785
:10019000FEE7FEE7FEE7FEE7FEE7FEE7FEE7FEE737
:1001A000FEE7FEE704480549054A064B7047000094
:1001B00079070008ED00000838010020380700200A
:1001C0003803002038030020704710B5203AC0F0F3
:1001D0000B80B1E81850203AA0E81850B1E8185048
:1001E000A0E81850BFF4F5AF5FEA027C24BFB1E885
:1001F0001850A0E8185044BF18C918C0BDE81040F6
:100200005FEA827C24BF51F8043B40F8043B08BFFE
:100210007047D20728BF31F8023B48BF11F8012BC5
:1002200028BF20F8023B48BF00F8012B70477047F9
:10023000704770477047754600F028F8AE460500D5
:100240006946534620F00700854618B020B5FFF7F1
:10025000A9FFBDE820404FF000064FF000074FF027
:1002600000084FF0000B21F00701AC46ACE8C009D4
:10027000ACE8C009ACE8C009ACE8C0098D467047DD
:100280000446AFF300802046FFF777FF0048704731
:10029000D400002070B58AB0044628221E49684662
:1002A000FFF793FF0A2094FBF0F594FBF0F100FBBD
:1002B000114600F039FB442000F082FB00F05EFAAA
:1002C00000F05AFB00F030FBC02000F079FB00F09A
:1002D00055FA1DF8250000F073FB00F04FFA00F00E
:1002E0004BFB00F021FBC12000F06AFB00F046FA56
:1002F0001DF8260000F064FB00F040FA00F03CFB23
:1003000000F012FB8F2000F05BFB00F037FA00F0EA
:1003100033FB0AB070BD00003813000870B58AB016
:10032000044628221E496846FFF74FFF0A2094FB27
:10033000F0F594FBF0F100FB114600F0F5FA4420D3
:1003400000F03EFB00F01AFA00F016FB00F0ECFAA9
:10035000C22000F035FB00F011FA1DF8250000F076
:100360002FFB00F00BFA00F007FB00F0DDFAC320D2
:1003700000F026FB00F002FA1DF8260000F020FB3A
:1003800000F0FCF900F0F8FA00F0CEFA8F2000F04F
:1003900017FB00F0F3F900F0EFFA0AB070BD0000AF
:1003A0001013000810B500F0BFFA442000F008FB5D
:1003B00000F0E4F900F0E0FA00F0B6FAC02000F036
:1003C000FFFA00F0DBF93F2000F0FAFA00F0D6F96E
:1003D00000F0D2FA00F0A8FAC12000F0F1FA00F023
:1003E000CDF93F2000F0ECFA00F0C8F900F0C4FAB3
:1003F00000F09AFAC22000F0E3FA00F0BFF93F20C3
:1004000000F0DEFA00F0BAF900F0B6FA00F08CFA6B
:10041000C32000F0D5FA00F0B1F93F2000F0D0FA87
:1004200000F0ACF900F0A8FA00F07EFA8F2000F09E
:10043000C7FA00F0A3F900F09FFA10BD10B50A202A
:1004400000F084FB0A48006870B900BF09480068E2
:1004500000F4E06008490843001D06490860BFF346
:10046000408F00BF00BFFEE710200449086010BDA8
:10047000100121420CED00E00000FA0514040140D7
:1004800010B51248806940F0040010498861104896
:10049000006820F470200E4908600846006840F4A7
:1004A000002008600A480C30006840F0100008493D
:1004B0000C31086001220421002000F00BF8022317
:1004C0000A221946184600F0B5F810BD0010024087
:1004D0000008014070B504460B46CE1701EB967636
:1004E000C6F38700CE1701EB9676B610A1EB860611
:1004F000B606350E1C4B9B6943F001031A4EB361DF
:100500004FEAB63353F820300F26AE40B343174EB0
:1005100046F82030334653F8203004FA05F61E43DF
:10052000124B43F82060124B1B6801268E40334368
:100530000F4E336002F0010343B10D4B0C331B68C7
:1005400001268E4033430A4E0C36336002F002031C
:1005500043B1074B08331E6801238B401E43044BF5
:1005600008331E6070BD000000100240080001400A
:10057000000401401348806940F00400114988617B
:10058000114800684FF6F07188430F49086008462B
:10059000006848F6800108430B4908600A480C309F
:1005A000006840F0020008490C3108600846006805
:1005B00040F0040008600846006840F00800086049
:1005C00070470000001002400008014000B5002004
:1005D00015490861C8601420486100208861C8611D
:1005E0000846006840F001000860084640680F496E
:1005F00008400D494860084600680D4908400A490E
:1006000008600846006820F48020086008464068BA
:1006100020F4FE0048600020886000214FF0006058
:1006200000F058F800BD0000001002400000FFF884
:10063000FFFFF6FE2DE9F0410746884614461D46A9
:10064000284600F033F8C5F1040007FA00F60F2041
:10065000284100EA0800064306F00F06E21704EB03
:10066000D2625211920002F1E022D2F8002121461A
:10067000E31704EBD3635B11A4EB431C012303FAE0
:100680000CF31A432046E31704EBD3635B119B0082
:1006900003F1E023C3F800210348005D40EA06109F
:1006A00001490855BDE8F08100E400E00146072358
:1006B00023EA01021202054B18684FF6FF031840A7
:1006C000034B18431043014B186070470CED00E0DA
:1006D0000000FA05024A0A400243024B1A607047C2
:1006E00080FFFF1F08ED00E030B504460025FFF74E
:1006F0006DFF1F48006840F480301D49086000BF4E
:100700001B480068400C0028FAD04FF4806018495C
:100710004860A01EC4B20846406840EA8440486071
:100720000846406840F4803048601248006840F055
:100730003200104908600E48006840F080700C4993
:10074000086000BF0A480068400E0028FAD0084838
:10075000406840F002000649486005E004484068EF
:10076000C0F3870505F00305022DF7D130BD000069
:1007700000100240002002407047000010B50F48F2
:10078000006820F070400D4908600846006840F09D
:100790000040086000200A490860052000F0F4F9D4
:1007A00001200849C1F89801052000F0EDF900206A
:1007B00003490860052000F0E7F910BD000C014076
:1007C00098812142008021422DE9F0418AB00446FF
:1007D000282249496846FFF7F8FC4FF47A7094FBE9
:1007E000F0F7642094FBF0F00A2190FBF1F201FB9A
:1007F00012050A2094FBF0F090FBF1F201FB1208C5
:100800000A2094FBF0F100FB114667E000F08CF841
:10081000442000F0D5F8FFF7B1FF00F0ADF800F08C
:1008200083F8C02000F0CCF8FFF7A8FF1DF82700E0
:1008300000F0C6F8FFF7A2FF00F09EF800F074F891
:10084000C12000F0BDF8FFF799FF1DF8250000F06A
:10085000B7F8FFF793FF00F08FF800F065F8C220BB
:1008600000F0AEF8FFF78AFF1DF8280000F0A8F8A6
:10087000FFF784FF00F080F800F056F8C32000F086
:100880009FF8FFF77BFF1DF8260000F099F8FFF7AF
:1008900075FF00F071F800F047F88F2000F090F835
:1008A000FFF76CFF00F068F84FF47A7000F04EF933
:1008B000761E701C10B9A8F10108092608EB880003
:1008C00006EB4000401C48B96D1E681C18B9012F8A
:1008D00001D1002709254FF00508092607EB8700FD
:1008E00005EB4000002891DAFFF75CFD00F0DCF832
:1008F0000AB0BDE8F0810000E812000808488069ED
:1009000040F00800064988610648006820F07F40F2
:10091000044908600846006840F04C500860704781
:1009200000100240000C014010B51048006820F093
:1009300070400E4908600846006840F0405008606A
:1009400001200B4908600B49C1F89C01052000F00B
:100950001BF900200649091D086001200549C1F85E
:100960009801052000F010F910BD0000000C0140B6
:10097000988121420080214210B50E48006820F085
:1009800070400C4908600846006840F0405008601C
:1009900001200949086000200849C1F89C01052090
:1009A00000F0F2F801200449091D0860052000F05C
:1009B000EBF810BD000C01409881214200802142DB
:1009C00070B504461448006820F070401249086071
:1009D0000846006840F040500860002519E00020FB
:1009E0000E49086004F0010018B10120091D0860DB
:1009F00003E000200949091D0860032000F0C4F845
:100A00006410012005490860032000F0BDF8681C4F
:100A1000C5B2082DE3DB70BD000C01409881214276
:100A20001D49098801F0200111B31B49091D0988DE
:100A3000C8B21A49098801F40041C9B9174909889F
:100A400001F4804161B10A2803D00021134A1180CA
:100A500020E01249098841F40041104A118019E050
:100A60000D2806D10D49098841F480410B4A1180B7
:100A700010E00A490988C1F30D01094A5054074999
:100A80000988491C054A118011460988C72901DDDA
:100A9000002111807047000000380140080000204C
:100AA0000C00002000BF704715E000240DE001207D
:100AB00009490860962000F049F800200749C1F86C
:100AC0008001962000F042F8641C032CEFDB4FF409
:100AD000FA7000F03BF8E8E7800121420000214273
:100AE0000848806940F004000649886106480068AB
:100AF00020F00F00044908600846006840F0030039
:100B00000860704700100240000801404FF0E021EB
:100B1000096921F004014FF0E0221161C21700EBD6
:100B20005272C2F3C702074B1A701946097801EBDB
:100B30004102C2EBC1114FF6FF7202EAC101024A43
:100B400011807047000000200200002001460D4A7D
:100B500012884A434FF0E0235A6100229A61012231
:100B60001A6100BF4FF0E022106900F001021AB1D3
:100B700000F48032002AF5D000224FF0E0231A6101
:100B80009A6170470200002001460D4A12784A43DC
:100B90004FF0E0235A6100229A6101221A6100BFDE
:100BA0004FF0E022106900F001021AB100F4803227
:100BB000002AF5D000224FF0E0231A619A617047B5
:100BC0000000002000F040F806460024002500BF89
:100BD00021E0012E06D1641C632C00DD0024204698
:100BE000FFF758FB022E06D16D1C3C2D00DD0025C1
:100BF0002846FFF793FB032E0AD104EBC40000EB59
:100C0000041005EB80073846FFF7DEFD00250024C1
:100C100000F01AF80646DCE70920FFF765FD4820DA
:100C2000FFF774FFFFF76AFEFFF75AFFFFF728FC94
:100C30004FF41651482000F045F8FFF7B3FB01E0F0
:100C4000FFF7C0FFFCE7000010B5FFF793FC1B485F
:100C5000007808B31A48006838B11948001D0068C8
:100C600018B1174808300068B0B90A20FFF76EFFC6
:100C70000020124908701248006808B9012010BD10
:100C80000F48001D006808B90220F8E70C4808303A
:100C9000006888B90320F2E70948006801280BD1F1
:100CA0000748001D0068012806D105480830006883
:100CB000012801D1014908700020E0E70A00002066
:100CC000040121422DE9F05F05460E46300100F097
:100CD000ABF981462E4905FB01F000F0A5F98246EB
:100CE000494600F0BFF80746384600F07DF984B267
:100CF000204600F099F98346394600F075FA82469D
:100D00004FF0834100F0A4F9814600F06DF9804670
:100D10004FF6FF7000EA041404EB080084B21D488B
:100D2000806940F004001B4988610846806940F4EE
:100D3000804088611848006820F47F601649086088
:100D40000846006840F40B6008601248C06840F430
:100D500080401049C8600846C06820F48040C860E0
:100D60000E480480001D008842F20C0108430B4924
:100D7000091D08800846008840F0200008800223F2
:100D8000252203210846FFF755FCBDE8F09F00002F
:100D900040420F00001002400408014008380140A2
:100DA00090EA010F48BF81F0004100F12E82421A03
:100DB0003CBF801A89184FEAD0524FF07F4C1CEA92
:100DC000410FA2EBD15318BF9CEA026F00F03B80A9
:100DD0004FF0004C4CEA00204CEA012121FA03FCC0
:100DE00010EB0C0C1ED202F1FF325FEA1C2040EB2C
:100DF000C25038BF70471CF07F0F4FEA400C18BF3D
:100E0000BCF17F4F38BF7047C3F12003994008BF42
:100E100020F00100BCF17F4F38BF7047A0F1C04007
:100E200000F0DDB94FEA3C00000A40EBC25028BF99
:100E30001CF0FF0F4FEA400CE6D018BFBCF17F4F0B
:100E400038BF7047EAE79CEA026F05D010EA5C0FF2
:100E500008BF00F00040704710B500F07AF900BFFD
:100E600064FBBE3E4FF47F0C1CEAD0121EBF1CEA8E
:100E7000D11392EA0C0F93EA0C0F00F0858090EAF0
:100E8000010F48BF42F4807240F4000C41F40000AE
:100E90002CF07F4120F07F4000B58142A2EB03029D
:100EA0000FF2081CACEB504EC0F100009EF800E0C1
:100EB0004FEA4E0E00FB0EFC38BF49004FEA2C1CD7
:100EC00002F5FA020CFB0EF34FEACE1E4FEA112C8C
:100ED0004FEAC1210EEB635E42EB22420EFB0CFC9B
:100EE0004FEA1C5300FB03114FEA112C4FEA01316A
:100EF0000EFB0CFC4FEADC4C00FB0C11C14228BF7E
:100F000009184CEB03335DF804EB10EB410143EBA4
:100F1000C250B2F57C0F38BF704729D512F0F00FE0
:100F20001CBF00F1C04000F0004070470081828388
:100F30008485868788898B8C8D8E8F9192939596E8
:100F400097999A9C9D9FA0A2A3A5A7A8AAACAEB072
:100F5000B2B3B5B7B9BCBEC0C2C5C7C9CCCED1D477
:100F6000D7D9DCDFE2E6E9ECF0F3F7FAFE000000A7
:100F70004FEA400C0CF1807CBCF17E4F28BF7047DB
:100F8000B0F1C04000F02BB990EA010F0CEAD11388
:100F900048BF42F48072624538BF634507D213F4FC
:100FA0007F0F16D080EA010000F00040704710B5B6
:100FB00000F0CFF8097EFC3E00F005B880EA0100A1
:100FC00000F00040704780EA010000F0004000F0AF
:100FD00006B912F47F0F04BF0248704780EA01008F
:100FE00000F0FDB80000C07FC10DD1F19E0206DB0C
:100FF0004FEA002343F0004323FA02F07047004217
:1010000007D54FEA4001B1F1FE4F02D24FF0000088
:10101000704710B500F09DF8499224800020704779
:101020006FEA200070470000B0FA80F310FA03F274
:10103000C3F19D030AD0D90501EB1220530638BF36
:10104000704700F1010008BF20F001007047000068
:101050004FF47F0C1CEAD0121EBF1CEAD11392EA97
:101060000C0F93EA0C0F00F0478090EA010F48BF85
:1010700042F480724FF0004C4CEA00204CEA01210F
:1010800002EB0302A0FB0113A2F50002002918BF26
:1010900043F001035B0028BF4FEA330342EB2242D7
:1010A0005FEA132C4CEBC2502EBFBCEB436FB2F582
:1010B0007C0F70474FEA036CBCF1004F08BF20F073
:1010C0000100B2F57C0F38BF70470BD582F0FF02EC
:1010D00012F5803FC8BF704700F1C040D8BF00F094
:1010E0000040704700F5000C5FEA4C0C48BF7047A9
:1010F000B0F1C04000F073B890EA010F0CEAD113D0
:1011000048BF42F48072624538BF634504D280EA2A
:10111000010000F00040704710B500F01AF800BF61
:101120008900013E00F007B800F009B85FEA410C01
:101130005FEA1C6C08D080EA010000F050B85FEA5A
:10114000400C5FEA1C6CF6D14FF00040A0F5800027
:1011500070470EF1020E2EF0030E5EF8044B24428F
:1011600004D44FEA4102B2F17F4F11D84FEA400355
:10117000B3F17F4F0CD80ED14FEAD07CB2F17F4F44
:101180000CEB4C0C0CF1020C08BF4CEBD17C04E0D6
:101190004FF0080C01E04FEAD17C0CEB4C0324FA31
:1011A00003F404F00704B4F1040C06D20EEB840C33
:1011B000BDE810404CF0010C6047DFE80CF0070878
:1011C00002024FF00040A0F5800010BD084642002A
:1011D00018BFD2F1807288BF00F0004010BDFF211F
:1011E00041EAD050C005704780F0004090EA010FFE
:1011F0007FF5DDAD81F0004100F007B890EA010F06
:1012000048BF81F000413FF5D2AD421A04D882F0C8
:101210000042A0EB020011444FEAD0524FF07F4C45
:101220001CEA410FA2EBD15318BF9CEA026F4AD0CF
:101230004FF0004C4CEA00204CEA012121FA03FC5B
:10124000B0EB0C0C0FD412F0FE0F36D05FEA4C005E
:101250001DD5001240EBC25038BF70471CF03F0F45
:1012600018BF70470BE0A2F101025FEA1C2040EBBF
:10127000C25038BF70471CF07F0F18BF7047C3F1D2
:101280002003994014BF401E20F0010070478008E1
:101290004FEA122308BF7047B0FA80FCA2EB0C02A1
:1012A000CCF1280C60FA0CF093EA122F04BF00EB8B
:1012B000C25070474FEAC3707047130A5FEADC10F0
:1012C00008BF7047F6E79CEA026F04D010EA5C0F93
:1012D00008BF0020704710B5FFF73BFF40DFF63E28
:1012E00081F00040704700003F0000000600000051
:1012F0005B0000004F000000660000006D00000071
:101300007D000000070000007F0000006F0000006B
:101310003F000000060000005B0000004F000000DE
:10132000660000006D0000007D0000000700000066
:101330007F0000006F0000003F000000060000007A
:101340005B0000004F000000660000006D00000020
:101350007D000000070000007F0000006F0000001B
:1013600080130008000000200C0000002801000885
:101370008C1300080C0000202C070000440100081A
:0C13800000000000000000000000010060
:04000005080000ED02
:00000001FF
